S02000004D6F746F725F436F6E74726F6C5F616E645F54696D696E672E737265635A
S11300000C9434000C943E000C943E000C943E007E
S11300100C943E000C943E000C943E000C943E0064
S11300200C943E000C943E000C943E000C943E0054
S11300300C943E000C943E000C943E000C943E0044
S11300400C943E000C943E000C943E000C943E0034
S11300500C943E000C943E000C943E000C943E0024
S11300600C943E000C943E0011241FBECFEFD8E048
S1130070DEBFCDBF0E9440000C9474000C940000BD
S1130080389AE4E6F0E080818F68808384B18FEF52
S113009084B90E944E000E945E00FFCF8AB1806640
S11300A08AB98FE787BD88BD85B5816085BD84B574
S11300B0836084BD84B5806B84BD08958AB18066F5
S11300C08AB98FE78093B3008093B400E1EBF0E04A
S11300D0808181608083E0EBF0E0808183608083B5
S10F00E08081806B80830895F894FFCF2A
S9030000FC
